:020000040800F2
:100000000000012059190008A9190008A9190008C1
:10001000A9190008A9190008A91900080000000082
:10002000000000000000000000000000A919000806
:10003000A919000800000000A9190008C11400084F
:1000400000000000A9190008A9190008A919000852
:10005000A9190008A9190008A9190008A919000878
:10006000A9190008A9190008A9190008A919000868
:10007000A9190008A9190008A9190008A919000858
:10008000A9190008A9190008A91900080000000012
:10009000000000000000000000000000A919000896
:1000A000A9190008A9190008A9190008A919000828
:1000B000A9190008A9190008A9190008A919000818
:1000C000A9190008A9190008A9190008A919000808
:1000D000A9190008DD140008F91500080000000047
:1000E000A9190008A9190008A919000800000000B2
:1000F000000000000000000000000000A919000836
:1001000000000000A9190008A9190008A919000891
:1001100000000000000000000000000000000000DF
:10012000A9190008A9190008A9190008A9190008A7
:10013000A9190008000000000000000000000000F5
:10014000000000000000000000000000A9190008E5
:10015000A9190008A9190008A9190008151700080D
:10016000A9190008A91900080000000000000000FB
:10017000000000000000000000000000000000007F
:10018000000000000000000000000000000000006F
:04019000A9190008A1
:1001940010B5054C237833B9044B13B10448AFF3BD
:1001A40000800123237010BD6000002000000000C7
:1001B400F419000808B5034B1BB103490348AFF316
:1001C400008008BD0000000064000020F41900084D
:1001D40080B500AF012000F095FF012001F040F848
:1001E4004FF000004FF0030101F076F84FF00100EA
:1001F4004FF0030101F070F800F02BF800F0D0FC90
:1002040000F0A2FB01F060FB01F090FB0023184614
:1002140080BD000080B500AF0F2000F081FC0848CD
:1002240000F0DEFB0021012000F02CFC044800F06B
:10023400D7FB0021002000F025FC00BF80BD00BFDB
:100244000C1A000880B400AF00BFBD465DF8047B03
:10025400704780B500AF4FF002004FF0030101F08A
:100264003BF800F09DFC00BF80BD000080B500AFEE
:10027400084B1B781946002000F00EFD054B1B7837
:10028400002B0CBF01230023DBB21A46014B1A706A
:1002940000BF80BD7C00002080B584B000AF034661
:1002A400FB711A4B1B78002B21D10023FB7317E041
:1002B400FB7B174A52F83300FB7B154ADB001344DF
:1002C4001B791946FA79FB7B42FA03F3DBB203F09C
:1002D4000103DBB21A4600F0C5FEFB7B0133FB735E
:1002E400FB7B072BE4D9094B01221A7002E0074B70
:1002F40000221A70054B1B781A460021054800F0AD
:10030400B1FE00BF1037BD4680BD00BFE60000202F
:10031400301A00080004024080B582B000AF0346E2
:10032400FB7100220021084800F09CFE00220121FC
:10033400054800F097FEFB791846FFF7ADFF00BFB4
:100344000837BD4680BD00BF0000024080B582B0C2
:1003540000AF0346FB7101220021084800F082FE31
:1003640000220121054800F07DFEFB791846FFF7C5
:1003740093FF00BF0837BD4680BD00BF00000240A8
:1003840080B500AF3E4B1B78052B74D801A252F800
:1003940023F000BFB1030008D3030008FB030008E7
:1003A400230400084B04000873040008354B1B7831
:1003B4000233DAB2334B1A70324B1B781D2B5CD9E3
:1003C400304B00221A702E4B01221A7055E02D4B2F
:1003D4001B780133DAB22B4B1A702A4B1B78022B91
:1003E40005D1284B00221A70254B02221A7038209E
:1003F400FFF792FF42E0234B1B780133DAB2214B23
:100404001A70204B1B78022B05D11E4B00221A7048
:100414001B4B03221A700C20FFF77EFF2EE0194BB2
:100424001B780133DAB2174B1A70164B1B78022B68
:1004340005D1144B00221A70114B04221A700120AA
:10044400FFF76AFF1AE00F4B1B780133DAB20D4B4A
:100454001A700C4B1B78022B05D10A4B00221A7020
:10046400074B05221A700620FFF756FF06E0064BDD
:1004740002221A7002E000BF00E000BF00BF80BD8E
:10048400E7000020E80000207D00002080B500AFD8
:10049400384B1B781946384A0B469B000B449B008B
:1004A400134408331A68334B1B7818463249034601
:1004B4009B0003449B000B440D331B7813441B78AF
:1004C400002B3ED02B4B1B7819462B4A0B469B0026
:1004D4000B449B00134408331A68264B1B781846B8
:1004E400254903469B0003449B000B440D331B78B2
:1004F40013441B781846FFF729FF204B1B78013360
:10050400DAB21E4B1A701D4B1B78022B30D1194BDB
:100514001B781A46184913469B0013449B000B444E
:100524000D331B780133D8B2134913469B0013448F
:100534009B000B440D3302461A70104B00221A70B4
:1005440016E00C4B1B7819460B4A0B469B000B44D8
:100554009B001344013300221A70064B1B78194682
:10056400054A0B469B000B449B00134400221A705F
:1005740000BF80BDE400002080000020E5000020D2
:1005840080B500AF374B1B781946374A0B469B00A2
:100594000B449B0013440D331A78324B1B781846D6
:1005A400314903469B0003449B000B440C331B78E6
:1005B4009A423ED22B4B1B7819462B4A0B469B0082
:1005C4000B449B00134408331A68264B1B781846C7
:1005D400254903469B0003449B000B440D331B78C1
:1005E40013441B781846FFF7B1FE204B1B780133E8
:1005F400DAB21E4B1A701D4B1B78022B30D1194BEB
:100604001B781A46184913469B0013449B000B445D
:100614000D331B780133D8B2134913469B0013449E
:100624009B000B440D3302461A70104B00221A70C3
:1006340016E00C4B1B7819460B4A0B469B000B44E7
:100644009B001344013300221A70064B1B78194691
:10065400054A0B469B000B449B00134400221A706E
:1006640000BF80BDE400002080000020E5000020E1
:1006740080B500AF144B1B78022B1AD1124B002209
:100684001A70124B1B781946114A0B469B000B44F7
:100694009B001344013300221A700C4B1B7819463B
:1006A4000B4A0B469B000B449B00134400221A7018
:1006B40008E00120FFF730FE034B1B780133DAB268
:1006C400014B1A7000BF80BDE5000020E40000204B
:1006D4008000002080B500AF304B1B78022B1AD16C
:1006E4002E4B00221A702E4B1B7819462D4A0B46AE
:1006F4009B000B449B001344013300221A70284BC7
:100704001B781946274A0B469B000B449B00134455
:1007140000221A7040E0224B1B781946214A0B46EE
:100724009B000B449B0013440E331B78002B10D109
:100734001B4B1B7819461B4A0B469B000B449B0022
:1007440013440F331B78803BDBB21846FFF7E4FDFC
:100754001CE0134B1B781946124A0B469B000B44B2
:100764009B0013440E331B78012B0FD10C4B1B78C9
:1007740019460C4A0B469B000B449B0013440F3351
:100784001B78403BDBB21846FFF7C6FD034B1B78D2
:100794000133DAB2014B1A7000BF80BDE5000020BE
:1007A400E40000208000002080B500AF1A4B1B78C5
:1007B400022B1AD1184B00221A70184B1B781946B9
:1007C400174A0B469B000B449B0013440133002241
:1007D4001A70124B1B781946114A0B469B000B44A6
:1007E4009B00134400221A7013E00C4B1B7819462B
:1007F4000B4A0B469B000B449B00134410331B789D
:100804001846FFF789FD044B1B780133DAB2024B1B
:100814001A7000BF80BD00BFE5000020E400002086
:100824008000002080B500AF3B4B1B7819463B4A43
:100834000B469B000B449B00134401331B78012B94
:100844004AD1354B1B781946344A0B469B000B445E
:100854009B0013441B78012B02D1FFF717FE58E0CD
:100864002D4B1B7819462D4A0B469B000B449B00CD
:1008740013441B78022B02D1FFF782FE49E0264B7A
:100884001B781946254A0B469B000B449B001344D6
:100894001B78032B02D1FFF7EBFE3AE01E4B1B78CB
:1008A40019461E4A0B469B000B449B0013441B78BD
:1008B400042B02D1FFF70EFF2BE0174B1B781946D0
:1008C400164A0B469B000B449B0013441B78052BD4
:1008D4001FD1FFF769FF1CE00F4B1B780133DAB21D
:1008E4000D4B1A700C4B1B78052B02D10A4B0022BE
:1008F4001A70094B1B781946084A0B469B000B4497
:100904009B00134401331B78002B02D1024B0022BD
:100914001A7000BF80BD00BFE400002080000020EA
:1009240080B500AF074B1B78012B02D1FFF728FDE0
:1009340005E0044B1B78022B01D1FFF773FF00BFC6
:1009440080BD00BF7D00002080B586B000AF0023CD
:10095400BB750123BB6000233B610223FB600023C2
:10096400FB7511E0FB7D1A4ADB0013441B797B60A5
:10097400FB7D174A52F833303B603B46184600F083
:10098400CFF9FB7D0133FB75FB7D072BEAD90023EF
:100994007B60104B3B603B46184600F0C1F90123D5
:1009A4007B600C4B3B603B46184600F0B9F90023D2
:1009B4007B60094B3B603B46184600F0B1F9074B9E
:1009C40001221A70BB7D18461837BD4680BD00BF92
:1009D400301A000800000240000402407D0000209C
:1009E40080B485B000AF78600023FB737B68002B74
:1009F40002D10123FB733BE00023BB7335E0BA7BD8
:100A04001F4913469B0013449B000B4401331B787E
:100A1400002B27D1BA7B1A4913469B0013449B0031
:100A24000B44013301221A70BA7B154913469B000B
:100A340013449B000B4401221A70BA7B10491346DD
:100A44009B0013449B000B4408337A681A60BA7BFA
:100A54000B4913469B0013449B000B440D330022A7
:100A64001A7005E0BB7B0133BB73BB7B042BC6D977
:100A7400FB7B18461437BD465DF8047B704700BF06
:100A84008000002080B485B000AF03460A46FB71A5
:100A94001346BB710023FB7335E0FA7B1F491346F1
:100AA4009B0013449B000B4401331B78002B27D17C
:100AB400FA7B1A4913469B0013449B000B440133F1
:100AC40001221A70FA7B154913469B0013449B00BC
:100AD4000B4404221A70FA7B104913469B001344FA
:100AE4009B000B440E33FA791A70FA7B0B491346B8
:100AF4009B0013449B000B440F33BA791A7005E032
:100B0400FB7B0133FB73FB7B042BC6D90023184604
:100B14001437BD465DF8047B704700BF8000002099
:100B240080B485B000AF0346FB710023FB732BE058
:100B3400FA7B1A4913469B0013449B000B44013370
:100B44001B78002B1DD1FA7B144913469B001344D8
:100B54009B000B44013301221A70FA7B0F491346A0
:100B64009B0013449B000B4405221A70FA7B0B492B
:100B740013469B0013449B000B441033FA791A70FC
:100B840005E0FB7B0133FB73FB7B042BD0D900BF57
:100B940018461437BD465DF8047B7047800000207A
:100BA400B0B586B000AF0023FB750123BB60022300
:100BB400FB6000233B610023BB7560E0BA7D3549CF
:100BC40013465B0013449B000B4409331B78012B31
:100BD4000DD0BA7D2F4913465B0013449B000B4490
:100BE40009331B78002B02D00223FB7541E0BA7D48
:100BF400284913465B0013449B000B441B683B606D
:100C0400BA7D244913465B0013449B000B44043310
:100C14001B687B603B46184600F082F80346FB7570
:100C2400BA7D1C4913465B0013449B000B441868AF
:100C3400BA7D184913465B0013449B000B440433EC
:100C44001C68BA7D134913465B0013449B000B4494
:100C540009331978BA7D0F4D13465B0013449B008A
:100C64002B4408331B784B40DBB21A46214600F074
:100C7400F9F9FB7D002B06D1BB7D0133BB75BB7D30
:100C8400002B9BD000E000BFFB7D18461837BD4603
:100C9400B0BD00BF701A000890B585B000AF034620
:100CA4000A46FB711346BB710023FB73FB79002BCF
:100CB40002D00323FB7307E0BB79012B04D0BB797B
:100CC400002B01D00223FB73FB7B002B21D1FA798B
:100CD400124913465B0013449B000B441868FA79CD
:100CE4000E4913465B0013449B000B4404331968FC
:100CF400FA790A4C13465B0013449B0023440833DF
:100D04001A78BB795340DBB21A4600F0ABF90346BC
:100D1400FB73FB7B18461437BD4690BD701A000860
:100D24002DE9F00F8CB000AFF861002387F82F3065
:100D3400FB69002B03D1022387F82F30AFE0FB6956
:100D44001B68384A93420DD0FB691B68364A9342AC
:100D540008D0FB691B68354A934203D0052387F802
:100D64002F309CE0FB695B680F2B03D9062387F8BF
:100D74002F3094E0FB699B68002B4BD0FB699B6888
:100D8400002B47D0FB699B68082B43D0FB699B6809
:100D9400102B3FD0FB699B68012B3BD0FB699B6800
:100DA400012B37D0FB699B68092B33D0FB699B6807
:100DB400112B2FD0FB699B68052B2BD0FB699B68FB
:100DC4000D2B27D0FB699B68152B23D0FB699B68EF
:100DD400022B1FD0FB699B68022B1BD0FB699B680D
:100DE4000A2B17D0FB699B68122B13D0FB699B68F5
:100DF400062B0FD0FB699B680E2B0BD0FB699B68FD
:100E0400162B07D0FB699B68032B03D0032387F8B9
:100E14002F3044E0FB69DB68032B09D9072387F8EB
:100E24002F303CE000000240000402400008024071
:100E3400FB691B69002B32D0FB691B69012B2ED087
:100E4400FB691B69022B2AD0FB691B69032B26D083
:100E5400FB691B69042B22D0FB691B69052B1ED07F
:100E6400FB691B69062B1AD0FB691B69072B16D07B
:100E7400FB691B69082B12D0FB691B69092B0ED077
:100E8400FB691B690A2B0AD0FB691B690C2B06D072
:100E9400FB691B690F2B02D0042387F82F3097F8C6
:100EA4002F30002B40F0D580FB691B681B68BB62A8
:100EB400FB695B685B00032202FA03F3DB431A4617
:100EC400BB6A1340BB62FB699B6803F00302FB69C6
:100ED4005B685B0002FA03F3BA6A1343BB62FB6903
:100EE4001B68BA6A1A60FB691B685B68BB62FB69B2
:100EF4005B68012202FA03F3DB431A46BB6A134020
:100F0400BB62FB699B689B0803F00102FB695B6899
:100F140002FA03F3BA6A1343BB62FB691B68BA6A39
:100F24005A60FB691B68DB68BB62FB695B685B003A
:100F3400032202FA03F3DB431A46BB6A1340BB6283
:100F4400FB699B68DB0803F00302FB695B685B00D9
:100F540002FA03F3BA6A1343BB62FB691B68BA6AF9
:100F6400DA60FB691B689B68BB62FB695B685B00BA
:100F7400032202FA03F3DB431A46BB6A1340BB6243
:100F8400FB69DA68FB695B685B0002FA03F3BA6A1F
:100F94001343BB62FB691B68BA6A9A60FB691B68EE
:100FA400D3E90823C7E90823FB695B689C004FF079
:100FB4000F024FF00003A4F12001C4F1200003FA52
:100FC40004FB02FA01F14BEA010B22FA00F04BEAAE
:100FD400000B02FA04FA6FEA0A033B616FEA0B039F
:100FE4007B61D7E90823D7E904AB51461140B960C6
:100FF40059461940F960D7E90234C7E90834FB6956
:101004001B6900221D461646FB695B689B00A3F121
:101014002001C3F1200206FA03F905FA01F149EAB5
:10102400010925FA02F249EA020905FA03F8D7E9A7
:10103400082342EA0801396043EA09037B60D7E9DF
:101044000034C7E90834FB691968D7E90823C1E902
:10105400082397F82F3018463037BD46BDE8F00F07
:10106400704700BF80B487B000AFF860B960134622
:10107400FB710023FB75FB681F4A93420AD0FB688F
:101084001E4A934206D0FB681D4A934202D00523B0
:10109400FB750DE0BB680F2B02D90623FB7507E037
:1010A400FB79012B04D0FB79002B01D00823FB75BD
:1010B400FB7D002B18D1FB79002B02D0012B09D02A
:1010C40010E0BB681033012202FA03F31A46FB68EE
:1010D4009A6109E00122BB6802FA03F31A46FB682D
:1010E4009A6101E00123FB75FB7D18461C37BD4660
:1010F4005DF8047B704700BF00000240000402401A
:101104000008024080B485B000AF0346FB710023A1
:10111400FB734FF41673BB81FB79052B00F28880B7
:1011240001A252F823F000BF451100086D11000818
:1011340095110008BD110008E51100080D12000802
:10114400464B1B68454A43F00103136002E0BB8928
:10115400013BBB81414B1B6803F00203002B6AD1A6
:10116400BB89002BF3D066E03C4B1B683B4A43F43D
:101174008033136002E0BB89013BBB81374B1B68A2
:1011840003F40033002B58D1BB89002BF3D054E077
:10119400324B1B68314A43F08073136002E0BB8911
:1011A400013BBB812D4B1B6803F00073002B46D120
:1011B400BB89002BF3D042E0284B1B68274A43F03D
:1011C4008063136002E0BB89013BBB81234B1B6836
:1011D40003F00063002B34D1BB89002BF3D030E043
:1011E4001E4B1B6F1D4A43F00103136702E0BB89CA
:1011F400013BBB81194B1B6F03F00203002B22D16F
:10120400BB89002BF3D01EE0144B5B6F134A43F0F1
:101214000103536702E0BB89013BBB810F4B5B6F4A
:1012240003F00203002B10D1BB89002BF3D00CE098
:101234000123FB730AE000BF08E000BF06E000BF23
:1012440004E000BF02E000BF00E000BFFB7B1846E3
:101254001437BD465DF8047B704700BF0038024078
:1012640080B485B000AF0346FB710023FB73FB79A8
:10127400002B05D1174B1B6803F00103002B11D081
:10128400FB79012B05D1134B1B6803F48033002B2E
:1012940008D0FB79022B08D10E4B1B6803F0807336
:1012A400002B02D10123FB730DE00A4B9B68BB604A
:1012B400BB6823F00303BB60FB79BA681343BB60CC
:1012C400044ABB689360FB7B18461437BD465DF83F
:1012D400047B70470038024080B485B000AFC7E992
:1012E40000017B68BB600023FB73BB68032B02D047
:1012F4000123FB7346E0D7E9002313461F2B09D8CB
:10130400244B196BD7E9002301239340214A0B4353
:10131400136337E0D7E9002313463F2B0CD81D4B4A
:10132400596BD7E900231346203B012202FA03F349
:10133400184A0B43536325E0D7E9002313465F2B78
:101344000CD8144B196CD7E900231346403B0122F7
:1013540002FA03F30F4A0B43136413E0D7E90023A3
:1013640013467F2B0CD80B4B596CD7E9002313463B
:10137400603B012202FA03F3064A0B43536401E083
:101384000123FB73FB7B18461437BD465DF8047BD1
:10139400704700BF0038024080B485B000AF786069
:1013A4000023FB737B68B3F1807F01D30123FB73BC
:1013B400FB7B002B02D1054A7B685360FB7B1846FC
:1013C4001437BD465DF8047B704700BF10E000E0B1
:1013D40080B586B000AF78600023FB740F4B1B68A8
:1013E40003F00403042B02D10D4B7B6101E00D4B90
:1013F4007B617B690C4AA2FB03239B097A6802FB8D
:1014040003F3013BFB60F868FFF7C6FF0346FB7478
:10141400FB7C18461837BD4680BD00BF10E000E0D5
:1014240040787D0108AF2F00D34D621080B485B0A1
:1014340000AF0346FB710023FB73FB79022B04D03E
:10144400FB79002B01D00123FB73FB7B002B12D112
:101454000C4B01229A600B4B1B680A4A23F00203CF
:101464001360084B1B68FA7942F00102D2B21146AC
:10147400044A0B431360FB7B18461437BD465DF8E2
:10148400047B704710E000E080B485B000AF786062
:101494000023FB737B68002B01D10223FB73FB7BCE
:1014A400002B02D1044A7B681360FB7B1846143777
:1014B400BD465DF8047B7047EC00002080B500AFAA
:1014C400044B1B68002B02D0024B1B68984700BFDB
:1014D40080BD00BFEC00002080B500AF414B1B680D
:1014E4001B6803F48073002B0ED03E4B1B681A68F4
:1014F4003C4B1B6822F480721A603B4B1B68002B28
:1015040002D0394B1B689847364B1B681B6803F0A5
:101514008003002B2BD0354B1B7A012B27D1334B67
:10152400DA88324B9B889A420FD2304B1B682F4A81
:10153400D28813441A782B4B1B685A602B4BDB88D8
:1015440001339AB2294BDA8011E0284B00221A7237
:10155400244B1B68DA68234B1B6822F08002DA6094
:10156400224BDB68002B02D0204BDB6898471D4BD5
:101574001B681B6803F02003002B31D01C4B1B7A23
:10158400012B2DD11A4BDA88194B9B889A4227D20A
:10159400144B1B685968164B1B68154AD2881344B0
:1015A400CAB21A70124BDB8801339AB2104BDA803C
:1015B4000F4BDA880E4B9B889A4211D10C4B0022B8
:1015C4001A72084B1B68DA68064B1B6822F020026B
:1015D400DA60074BDB68002B02D0054BDB689847C9
:1015E40000BF80BD0000002050010020F00000205A
:1015F4002001002080B500AF414B5B681B6803F4F9
:101604008073002B0ED03E4B5B681A683C4B5B68C2
:1016140022F480721A603B4B5B68002B02D0394B7A
:101624005B689847364B5B681B6803F08003002BAC
:101634002BD0354B1B7E012B27D1334BDA8A324B0F
:101644009B8A9A420FD2304B1B692F4AD28A134489
:101654001A782B4B5B685A602B4BDB8A01339AB2A6
:10166400294BDA8211E0284B00221A76244B5B685E
:10167400DA68234B5B6822F08002DA60224BDB6974
:10168400002B02D0204BDB6998471D4B5B681B681D
:1016940003F02003002B31D01C4B1B7E012B2DD1DA
:1016A4001A4BDA8A194B9B8A9A4227D2144B5B68ED
:1016B4005968164B1B69154AD28A1344CAB21A7068
:1016C400124BDB8A01339AB2104BDA820F4BDA8A5F
:1016D4000E4B9B8A9A4211D10C4B00221A76084B6E
:1016E4005B68DA68064B5B6822F02002DA60074B1D
:1016F400DB69002B02D0054BDB69984700BF80BD36
:101704000000002050010020F000002020010020F3
:1017140080B500AF434B9B681B6803F48073002BB8
:101724000ED0404B9B681A683E4B9B6822F4807233
:101734001A603D4B9B68002B02D03B4B9B6898473B
:10174400384B9B681B6803F08003002B2DD0374B6C
:1017540093F82830012B28D1344BDA8C334B9B8CF3
:101764009A420FD2314B1B6A304AD28C13441A78F6
:101774002C4B9B685A602D4BDB8C01339AB22B4B5C
:10178400DA8412E0294B002283F82820254B9B6839
:10179400DA68244B9B6822F08002DA60234BDB6A10
:1017A400002B02D0214BDB6A98471E4B9B681B68B9
:1017B40003F02003002B33D01D4B93F82830012B6A
:1017C4002ED11B4BDA8C1A4B9B8C9A4228D2154B88
:1017D4009B685968164B1B6A154AD28C1344CAB2CB
:1017E4001A70134BDB8C01339AB2114BDA84104B11
:1017F400DA8C0F4B9B8C9A4212D10D4B002283F84A
:101804002820084B9B68DA68064B9B6822F020026C
:10181400DA60074BDB6A002B02D0054BDB6A984782
:1018240000BF80BD0000002050010020F000002017
:101834002001002080B400AF044B1B680133034A2D
:10184400136000BFBD465DF8047B70470C000020A8
:1018540080B582B000AF0023FB802BE0FB88194ADF
:1018640052F833301B69002B16D0FB88154ADB0075
:1018740013445B68002B0FD1FB88124A52F83330B3
:101884001B699847FB880F4A52F83320FB8852683B
:101894000C49DB000B445A60FB880A4ADB00134402
:1018A4005A68FB88023A0749DB000B445A60FB88FC
:1018B4000133FB80FB88032BD0D900BF00BF08375E
:1018C400BD4680BD5C01002080B582B000AF00231E
:1018D400FB8017E0FA88F98813469B0013449B00A9
:1018E4000F4A13440F4A42F83130FB880D4A52F82C
:1018F4003320FB88D2680B49DB000B445A60FB8819
:101904000133FB80FB88032BE4D90220FFF760FD41
:101914000548FFF7B9FD00BF0837BD4680BD00BFCD
:10192400100000205C0100203918000880B500AFC9
:101934000220FFF77BFD064B1B68002BFBD0044BFA
:101944001B68013B024A1360FFF782FFF3E700BF05
:101954000C0000200D488546AFF300800C480D496B
:101964000D4A002302E0D458C4500433C4188C42F6
:10197400F9D30A4A0A4C002301E013600432A2425C
:10198400FBD300F011F8FEF723FCFEE70000012072
:101994000000002060000020841A0008600000207D
:1019A4007C010020FEE7000070B50D4D0D4C641B5A
:1019B400A4100026A64209D10B4D0C4C00F018F8D7
:1019C400641BA4100026A64205D170BD55F8043B43
:1019D40098470136EEE755F8043B98470136F2E79D
:1019E4007C1A00087C1A00087C1A0008801A000877
:1019F400F8B500BFF8BC08BC9E467047F8B500BFF8
:081A0400F8BC08BC9E467047C7
:101A0C0041686D65640000006C636400626C696E13
:101A1C006B696E67206C6564000000006C63642069
:101A2C004150500000040240010000000000024040
:101A3C00040000000000024005000000000002400D
:101A4C0006000000000002400700000000000240F9
:101A5C0008000000000002400900000000000240E5
:101A6C000A000000000802400D0000000100000008
:041A7C00B9010008A4
:041A800095010008C4
:101A84000010014000440040001401400100000027
:101A9400141A00080200000000000000000000000A
:101AA40025090008181A0008F401000001000000CC
:101AB4000000000071020008281A0008E803000072
:101AC400020000000000000019020008281A0008A3
:101AD400E8030000030000000000000049020008C1
:04000005080019597D
:00000001FF
