:020000040800F2
:1000000000000120551F0008A51F0008A51F0008BB
:10001000A51F0008A51F0008A51F0008000000007C
:100020000000000000000000000000004110000877
:10003000A51F00080000000091120008F912000836
:1000400000000000A51F0008A51F0008A51F00084C
:10005000A51F0008A51F0008A51F0008A51F000870
:10006000A51F0008A51F0008A51F0008A51F000860
:10007000A51F0008A51F0008A51F0008A51F000850
:10008000A51F0008A51F0008A51F0008000000000C
:10009000000000000000000000000000A51F000894
:1000A000A51F0008A51F0008A51F0008A51F000820
:1000B000A51F0008A51F0008A51F0008A51F000810
:1000C000A51F0008A51F0008A51F0008A51F000800
:1000D000A51F0008850A0008850B00080000000025
:1000E000A51F0008A51F0008A51F000800000000AC
:1000F000000000000000000000000000A51F000834
:1001000000000000A51F0008A51F0008A51F00088B
:1001100000000000000000000000000000000000DF
:10012000A51F0008A51F0008A51F0008A51F00089F
:10013000A51F0008000000000000000000000000F3
:10014000000000000000000000000000A51F0008E3
:10015000A51F0008A51F0008A51F0008850C0008A2
:10016000A51F0008A51F00080000000000000000F7
:10017000000000000000000000000000000000007F
:10018000000000000000000000000000000000006F
:04019000A51F00089F
:1001A00010B5054C237833B9044B13B10448AFF3B1
:1001B00000800123237010BD140000200000000007
:1001C0000020000808B5034B1BB103490348AFF3F7
:1001D000008008BD0000000018000020002000087A
:1001E00080B586B000AF78607B68012B0AD04FF0F5
:1001F000500383F31188BFF36F8FBFF34F8FFB6002
:1002000000BFFEE70123FB7501F0F0FB0346BB6076
:100210004FF47A733B6107F108033969184601F01E
:1002200011FAFB7D1946002000F0ACF8FB7D002B95
:100230000CBF01230023DBB2FB75ECE780B582B075
:1002400002AF012000F0D4FA012000F07FFB4FF054
:1002500000004FF0030100F0B5FB4FF002004FF03B
:10026000030100F0AFFB00F011F80023019301231C
:100270000093012380220349034801F085F801F02F
:100280005FFAFEE718200008E1010008B0B586B06B
:1002900000AF0023FB750123BB600223FB6000233A
:1002A0003B610023BB7560E0BA7D354913465B00B6
:1002B00013449B000B4409331B78012B0DD0BA7DEE
:1002C0002F4913465B0013449B000B4409331B78F2
:1002D000002B02D00223FB7541E0BA7D284913466A
:1002E0005B0013449B000B441B683B60BA7D2449B0
:1002F00013465B0013449B000B4404331B687B6074
:100300003B46184600F082F80346FB75BA7D1C494F
:1003100013465B0013449B000B441868BA7D1849D0
:1003200013465B0013449B000B4404331C68BA7DE6
:10033000134913465B0013449B000B44093319789F
:10034000BA7D0F4D13465B0013449B002B440833CA
:100350001B784B40DBB21A46214600F0F9F9FB7DD1
:10036000002B06D1BB7D0133BB75BB7D012B9BD917
:1003700000E000BFFB7D18461837BD46B0BD00BF8A
:100380003020000890B585B000AF03460A46FB71E7
:100390001346BB710023FB73FB79012B02D90323A6
:1003A000FB7307E0BB79012B04D0BB79002B01D094
:1003B0000223FB73FB7B002B21D1FA7912491346F0
:1003C0005B0013449B000B441868FA790E491346EE
:1003D0005B0013449B000B4404331968FA790A4C00
:1003E00013465B0013449B00234408331A78BB79FF
:1003F0005340DBB21A4600F0ABF90346FB73FB7BBC
:1004000018461437BD4690BD302000082DE9F00F86
:100410008CB000AFF861002387F82F30FB69002B08
:1004200003D1022387F82F30AFE0FB691B68384AFD
:1004300093420DD0FB691B68364A934208D0FB6992
:100440001B68354A934203D0052387F82F309CE080
:10045000FB695B680F2B03D9062387F82F3094E0E4
:10046000FB699B68002B4BD0FB699B68002B47D036
:10047000FB699B68082B43D0FB699B68102B3FD01E
:10048000FB699B68012B3BD0FB699B68012B37D034
:10049000FB699B68092B33D0FB699B68112B2FD01C
:1004A000FB699B68052B2BD0FB699B680D2B27D024
:1004B000FB699B68152B23D0FB699B68022B1FD01F
:1004C000FB699B68022B1BD0FB699B680A2B17D02A
:1004D000FB699B68122B13D0FB699B68062B0FD01E
:1004E000FB699B680E2B0BD0FB699B68162B07D012
:1004F000FB699B68032B03D0032387F82F3044E06C
:10050000FB69DB68032B09D9072387F82F303CE010
:10051000000002400004024000080240FB691B6921
:10052000002B32D0FB691B69012B2ED0FB691B69A4
:10053000022B2AD0FB691B69032B26D0FB691B69A0
:10054000042B22D0FB691B69052B1ED0FB691B699C
:10055000062B1AD0FB691B69072B16D0FB691B6998
:10056000082B12D0FB691B69092B0ED0FB691B6994
:100570000A2B0AD0FB691B690C2B06D0FB691B698F
:100580000F2B02D0042387F82F3097F82F30002B41
:1005900040F0D580FB691B681B68BB62FB695B6828
:1005A0005B00032202FA03F3DB431A46BB6A1340E3
:1005B000BB62FB699B6803F00302FB695B685B003D
:1005C00002FA03F3BA6A1343BB62FB691B68BA6A97
:1005D0001A60FB691B685B68BB62FB695B68012290
:1005E00002FA03F3DB431A46BB6A1340BB62FB69A2
:1005F0009B689B0803F00102FB695B6802FA03F346
:10060000BA6A1343BB62FB691B68BA6A5A60FB692A
:100610001B68DB68BB62FB695B685B00032202FA54
:1006200003F3DB431A46BB6A1340BB62FB699B685A
:10063000DB0803F00302FB695B685B0002FA03F36B
:10064000BA6A1343BB62FB691B68BA6ADA60FB696A
:100650001B689B68BB62FB695B685B00032202FA54
:1006600003F3DB431A46BB6A1340BB62FB69DA68DB
:10067000FB695B685B0002FA03F3BA6A1343BB626F
:10068000FB691B68BA6A9A60FB691B68D3E9082397
:10069000C7E90823FB695B689C004FF00F024FF02D
:1006A0000003A4F12001C4F1200003FA04FB02FAC4
:1006B00001F14BEA010B22FA00F04BEA000B02FABF
:1006C00004FA6FEA0A033B616FEA0B037B61D7E927
:1006D0000823D7E904AB51461140B9605946194087
:1006E000F960D7E90234C7E90834FB691B690022C5
:1006F0001D461646FB695B689B00A3F12001C3F110
:10070000200206FA03F905FA01F149EA010925FA7E
:1007100002F249EA020905FA03F8D7E9082342EA96
:100720000801396043EA09037B60D7E90034C7E96F
:100730000834FB691968D7E90823C1E9082397F849
:100740002F3018463037BD46BDE8F00F704700BF68
:1007500080B487B000AFF860B9601346FB71002326
:10076000FB75FB681F4A93420AD0FB681E4A9342FE
:1007700006D0FB681D4A934202D00523FB750DE0AD
:10078000BB680F2B02D90623FB7507E0FB79012B11
:1007900004D0FB79002B01D00823FB75FB7D002BD7
:1007A00018D1FB79002B02D0012B09D010E0BB68D7
:1007B0001033012202FA03F31A46FB689A6109E03A
:1007C0000122BB6802FA03F31A46FB689A6101E052
:1007D0000123FB75FB7D18461C37BD465DF8047B85
:1007E000704700BF000002400004024000080240C1
:1007F00080B485B000AF0346FB710023FB734FF458
:100800001673BB81FB79052B00F2888001A252F898
:1008100023F000BF2D080008550800087D080008D7
:10082000A5080008CD080008F5080008464B1B681D
:10083000454A43F00103136002E0BB89013BBB81E1
:10084000414B1B6803F00203002B6AD1BB89002BCC
:10085000F3D066E03C4B1B683B4A43F480331360A3
:1008600002E0BB89013BBB81374B1B6803F40033BB
:10087000002B58D1BB89002BF3D054E0324B1B68BE
:10088000314A43F08073136002E0BB89013BBB81B6
:100890002D4B1B6803F00073002B46D1BB89002B46
:1008A000F3D042E0284B1B68274A43F08063136073
:1008B00002E0BB89013BBB81234B1B6803F0006353
:1008C000002B34D1BB89002BF3D030E01E4B1B6FC3
:1008D0001D4A43F00103136702E0BB89013BBB8162
:1008E000194B1B6F03F00203002B22D1BB89002B95
:1008F000F3D01EE0144B5B6F134A43F001035367C0
:1009000002E0BB89013BBB810F4B5B6F03F002032D
:10091000002B10D1BB89002BF3D00CE00123FB731B
:100920000AE000BF08E000BF06E000BF04E000BF2F
:1009300002E000BF00E000BFFB7B18461437BD4655
:100940005DF8047B704700BF0038024080B485B07A
:1009500000AF0346FB710023FB73FB79002B05D12D
:10096000174B1B6803F00103002B11D0FB79012BFF
:1009700005D1134B1B6803F48033002B08D0FB799F
:10098000022B08D10E4B1B6803F08073002B02D1A1
:100990000123FB730DE00A4B9B68BB60BB6823F02F
:1009A0000303BB60FB79BA681343BB60044ABB68AE
:1009B0009360FB7B18461437BD465DF8047B704797
:1009C0000038024080B485B000AFC7E900017B6801
:1009D000BB600023FB73BB68032B02D00123FB73B6
:1009E00046E0D7E9002313461F2B09D8244B196B87
:1009F000D7E9002301239340214A0B43136337E0D7
:100A0000D7E9002313463F2B0CD81D4B596BD7E970
:100A100000231346203B012202FA03F3184A0B433A
:100A2000536325E0D7E9002313465F2B0CD8144B02
:100A3000196CD7E900231346403B012202FA03F365
:100A40000F4A0B43136413E0D7E9002313467F2BAF
:100A50000CD80B4B596CD7E900231346603B01229D
:100A600002FA03F3064A0B43536401E00123FB73CC
:100A7000FB7B18461437BD465DF8047B704700BF0A
:100A80000038024080B500AF3A4B1B681B6803F486
:100A90008073002B0FD0374B1B681A68354B1B68CF
:100AA00022F480721A60344B1B68002B5FD0324BEB
:100AB0001B6898475BE02F4B1B681B6803F08003A3
:100AC000002B23D02D4BDA882C4B9B889A420FD2D7
:100AD0002A4B1B68294AD28813441A78254B1B6875
:100AE0005A60264BDB8801339AB2244BDA800DE042
:100AF000224B00221A721F4B1B68DA681D4B1B68C1
:100B000022F08002DA601D4BDB689847194B1B68A6
:100B10001B6803F02003002B29D0194BDA88184BEF
:100B20009B889A4223D2134B1B685968144B1B684D
:100B3000134AD2881344CAB21A70114BDB880133AE
:100B40009AB20F4BDA800E4BDA880D4B9B889A4293
:100B50000DD10B4B00221A72064B1B68DA68054B4D
:100B60001B6822F02002DA60054BDB68984700BF63
:100B700080BD00BF00000020900000203000002059
:100B80006000002080B500AF3A4B5B681B6803F43F
:100B90008073002B0FD0374B5B681A68354B5B684E
:100BA00022F480721A60344B5B68002B5FD0324BAA
:100BB0005B6898475BE02F4B5B681B6803F0800322
:100BC000002B23D02D4BDA8A2C4B9B8A9A420FD2D2
:100BD0002A4B1B69294AD28A13441A78254B5B6831
:100BE0005A60264BDB8A01339AB2244BDA820DE03D
:100BF000224B00221A761F4B5B68DA681D4B5B683C
:100C000022F08002DA601D4BDB699847194B5B6864
:100C10001B6803F02003002B29D0194BDA8A184BEC
:100C20009B8A9A4223D2134B5B685968144B1B6909
:100C3000134AD28A1344CAB21A70114BDB8A0133A9
:100C40009AB20F4BDA820E4BDA8A0D4B9B8A9A428C
:100C50000DD10B4B00221A76064B5B68DA68054B08
:100C60005B6822F02002DA60054BDB69984700BF21
:100C700080BD00BF00000020900000203000002058
:100C80006000002080B500AF3B4B9B681B6803F4FD
:100C90008073002B0FD0384B9B681A68364B9B68CB
:100CA00022F480721A60354B9B68002B61D0334B65
:100CB0009B6898475DE0304B9B681B6803F080039E
:100CC000002B24D02E4BDA8C2D4B9B8C9A420FD2CA
:100CD0002B4B1B6A2A4AD28C13441A78264B9B68EA
:100CE0005A60274BDB8C01339AB2254BDA840EE035
:100CF000234B002283F828201F4B9B68DA681E4B89
:100D00009B6822F08002DA601D4BDB6A98471A4B21
:100D10009B681B6803F02003002B2AD0194BDA8C48
:100D2000184B9B8C9A4224D2134B9B685968154BE5
:100D30001B6A144AD28C1344CAB21A70114BDB8C52
:100D400001339AB20F4BDA840E4BDA8C0D4B9B8C2D
:100D50009A420ED10B4B002283F82820064B9B6849
:100D6000DA68054B9B6822F02002DA60054BDB6AEB
:100D7000984700BF80BD00BF000000209000002009
:100D8000300000206000002080B584B000AF7860A3
:100D90000023FB607B6803F00703002B0ED07B6809
:100DA00023F0070308337A689A4205D27B6823F060
:100DB000070308337B6001E000237B6000F00CFD3B
:100DC000174B1B68002B05D1164B23F007031A465F
:100DD000134B1A607B68002B1BD0134B1A687B687F
:100DE000134443F6F732934213D80F4B1A687B68CB
:100DF0001A440D4B1B689A420BD9094B1A680A4BCF
:100E00001B681344FB60084B1A687B681344064A4E
:100E1000136000F0EFFCFB6818461037BD4680BD3C
:100E2000A03C0020A30000209C3C002080B485B0A2
:100E300000AF78607B68002B0AD04FF0500383F33B
:100E40001188BFF36F8FBFF34F8FFB6000BFFEE7CA
:100E500000BF1437BD465DF8047B704780B483B093
:100E600000AF78607B6803F108027B685A607B689A
:100E70004FF0FF329A607B6803F108027B68DA600A
:100E80007B6803F108027B681A617B6800221A60A4
:100E900000BF0C37BD465DF8047B704780B483B05B
:100EA00000AF78607B6800221A6100BF0C37BD4636
:100EB0005DF8047B704780B485B000AF786039601E
:100EC0003B681B68BB60BB68B3F1FF3F03D17B6825
:100ED0001B69FB600CE07B680833FB6002E0FB6889
:100EE0005B68FB60FB685B681B68BA689A42F6D275
:100EF000FB685A683B685A603B685B683A689A606E
:100F00003B68FA689A60FB683A685A603B687A689E
:100F10001A617B681B685A1C7B681A6000BF143713
:100F2000BD465DF8047B704780B485B000AF786043
:100F30007B681B69FB607B685B687A6892689A6073
:100F40007B689B687A6852685A60FB685B687A685D
:100F50009A4203D17B689A68FB685A607B680022DA
:100F60001A61FB681B685A1EFB681A60FB681B68E5
:100F700018461437BD465DF8047B704780B485B0D1
:100F800000AFF860B9607A60FB68043BFB60FB6807
:100F90004FF080721A60FB68043BFB60BB6823F073
:100FA0000102FB681A60FB68043BFB600C4AFB68AB
:100FB0001A60FB68143BFB607A68FB681A60FB6888
:100FC000043BFB60FB686FF002021A60FB68203B89
:100FD000FB60FB6818461437BD465DF8047B70471C
:100FE000E50F000880B485B000AF00237B60124B92
:100FF0001B68B3F1FF3F0AD04FF0500383F3118811
:10100000BFF36F8FBFF34F8FFB6000BFFEE74FF062
:10101000500383F31188BFF36F8FBFF34F8FBB6013
:1010200000BF00BF7B68002BFCD000BF00BF14379F
:10103000BD465DF8047B70470C00002000000000F6
:10104000074B19680868B0E8F04F80F30988BFF3D0
:101050006F8F4FF0000080F311887047AFF300806E
:10106000AC3C002000BF00BF08480068006880F367
:1010700008884FF0000080F3148862B661B6BFF3B1
:101080004F8FBFF36F8F00DF00BF000008ED00E05F
:1010900000BF00BF80B586B000AF464B1B68464A14
:1010A00093420AD14FF0500383F31188BFF36F8F3F
:1010B000BFF34F8F3B6100BFFEE73E4B1B683F4ACB
:1010C00093420AD14FF0500383F31188BFF36F8F1F
:1010D000BFF34F8FFB6000BFFEE7394B7B617B693D
:1010E0001B78DBB27B607B69FF221A707B691B78FF
:1010F000DBB2FB70FB78DBB203F05003DAB2314BAA
:101100001A70314B07221A6009E02F4B1B68013B14
:101110002D4A1360FB78DBB25B00DBB2FB70FB781F
:10112000DBB203F08003802BEFD0274B1B68C3F1A9
:101130000703042B0AD04FF0500383F31188BFF349
:101140006F8FBFF34F8FBB6000BFFEE71E4B1B6866
:101150001B021D4A13601C4B1B6803F4E0631A4A10
:1011600013607B68DAB27B691A70184B1B68174AE8
:1011700043F470031360154B1B68144A43F070432B
:10118000136000F0DBF8124B00221A6000F0F0F858
:10119000104B1B680F4A43F040431360FFF764FF96
:1011A00000F04AFDFFF71EFF002318461837BD4622
:1011B00080BD00BF00ED00E071C20F4170C20F4161
:1011C00000E400E0A43C0020A83C002020ED00E06A
:1011D0000C00002034EF00E080B483B000AF4FF08B
:1011E000500383F31188BFF36F8FBFF34F8F7B6082
:1011F00000BF0F4B1B6801330D4A13600C4B1B687B
:10120000012B0FD10B4B1B68DBB2002B0AD04FF028
:10121000500383F31188BFF36F8FBFF34F8F3B6091
:1012200000BFFEE700BF0C37BD465DF8047B70478A
:101230000C00002004ED00E080B483B000AF124B3E
:101240001B68002B0AD14FF0500383F31188BFF3C2
:101250006F8FBFF34F8F7B6000BFFEE70A4B1B68A9
:10126000013B094A1360084B1B68002B05D1002382
:101270003B603B6883F3118800BF00BF0C37BD465D
:101280005DF8047B704700BF0C00002000000000E8
:10129000EFF30980BFF36F8F154B1A681EF0100F24
:1012A00008BF20ED108A20E9F04F10602DE90900F9
:1012B0004FF0500080F31188BFF34F8FBFF36F8F53
:1012C00000F0BAFC4FF0000080F3118809BC1968E7
:1012D0000868B0E8F04F1EF0100F08BFB0EC108A9D
:1012E00080F30988BFF36F8F704700BFAFF30080B2
:1012F000AC3C002000BF00BF80B582B000AF4FF013
:10130000500383F31188BFF36F8FBFF34F8F7B6060
:1013100000BF00F07BFB0346002B03D0064B4FF0D1
:1013200080521A6000233B603B6883F3118800BF42
:1013300000BF0837BD4680BD04ED00E080B400AFBB
:10134000084B00221A60084B00221A60074B46F235
:10135000A7121A60034B07221A6000BFBD465DF852
:10136000047B704710E000E018E000E014E000E0CB
:10137000DFF80C00016841F4700101607047000063
:1013800088ED00E000BF00BF80B58CB004AFF8600E
:10139000B9603B601346FB80FB889B001846FFF753
:1013A000F3FC78617B69002B13D05420FFF7ECFC31
:1013B000F861FB69002B08D054220021F86900F085
:1013C000F2FDFB697A691A6305E07869FFF72EFD83
:1013D00001E00023FB61FB69002B13D0FA88002396
:1013E0000393FB690293FB6A0193BB6A00933B681A
:1013F000B968F86800F00EF8F86900F091F8012378
:10140000BB6102E04FF0FF33BB61BB691846203778
:10141000BD4680BD80B588B000AFF860B9607A6025
:101420003B603B6B1A6B7B6803F18043013B9B0085
:101430001344BB61BB6923F00703BB61BB6903F0C5
:101440000703002B0AD04FF0500383F31188BFF33A
:101450006F8FBFF34F8F7B6100BFFEE7BB68002B30
:101460001ED00023FB6112E0BA68FB6913441978AF
:101470003A6BFB69134434330A461A70BA68FB6945
:1014800013441B78002B06D0FB690133FB61FB6919
:101490000F2BE9D900E000BF3B6B002283F843200B
:1014A000BB6A062B0AD94FF0500383F31188BFF3B0
:1014B0006F8FBFF34F8F3B6100BFFEE7BB6A062B08
:1014C00001D90623BB623B6BBA6ADA623B6BBA6A2C
:1014D0005A643B6B04331846FFF7E0FC3B6B183350
:1014E0001846FFF7DBFC3B6B3A6B1A61BB6AC3F132
:1014F00007023B6B9A613B6B3A6B5A623A68F96838
:10150000B869FFF73BFD02463B6B1A60FB6A002B94
:1015100002D0FB6A3A6B1A6000BF2037BD4680BD1F
:1015200080B584B000AF7860FFF756FE3E4B1B6875
:1015300001333D4A13603D4B1B68002B09D13B4AE8
:101540007B681360384B1B68012B10D100F0E8FB5F
:101550000DE0374B1B68002B09D1344B1B68DA6A4E
:101560007B68DB6A9A4202D8304A7B681360314B51
:101570001B6801332F4A13607B68DB6A01229A40A3
:101580002D4B1B6813432C4A13607B68DA6A2B4986
:1015900013469B0013449B000B4404331B68FB6001
:1015A0007B68FA689A60FB689A687B68DA60FB6817
:1015B0009B687A6804325A607B681A1DFB689A60DF
:1015C0007B68DA6A13469B0013449B001B4A1A444B
:1015D0007B685A617B68DA6A184913469B0013449A
:1015E0009B000B441B68591C144813469B00134472
:1015F0009B0003441960FFF71FFE0D4B1B68002B77
:101600000ED00A4B1B68DA6A7B68DB6A9A4207D203
:101610000B4B4FF080521A60BFF34F8FBFF36F8FA9
:1016200000BF1037BD4680BDAC3D0020AC3C002063
:10163000B83D0020C83D0020B43D0020B03C002053
:1016400004ED00E080B58AB000AF78603960002317
:101650007B627B68002B0AD14FF0500383F3118823
:10166000BFF36F8FBFF34F8F7B6100BFFEE73B6817
:10167000002B0AD14FF0500383F31188BFF36F8F13
:10168000BFF34F8F3B6100BFFEE72A4B1B68002B67
:101690000AD04FF0500383F31188BFF36F8FBFF36D
:1016A0004F8FFB6000BFFEE700F096F8224B1B68EF
:1016B0003B627B681B683A681344FB617B681B686C
:1016C0003A6A9A420BD27B681B68FA699A4211D235
:1016D000FA693B6A9A420DD901237B620AE07B6872
:1016E0001B68FA699A4203D3FA693B6A9A4201D9A4
:1016F00001237B627B68FA691A607B6A002B06D043
:10170000FA693B6AD31A0021184600F0A3FB00F0E7
:1017100071F8B861BB69002B07D1084B4FF08052BC
:101720001A60BFF34F8FBFF36F8F7B6A184628375D
:10173000BD4680BDD43D0020B03D002004ED00E05A
:1017400080B586B002AF1D4B0193002300930023A8
:1017500080221B491B48FFF717FEF860FB68012B2E
:1017600016D14FF0500383F31188BFF36F8FBFF38F
:101770004F8FBB6000BF144B4FF0FF321A60134B0A
:1017800001221A60124B00221A60FFF783FC0EE060
:10179000FB68B3F1FF3F0AD14FF0500383F3118888
:1017A000BFF36F8FBFF34F8F7B6000BFFEE7094B26
:1017B0001B6800BF1037BD4680BD00BFD03D002074
:1017C00028200008F11C0008CC3D0020B83D002076
:1017D000B03D00201000002080B400AF044B1B6817
:1017E0000133034A136000BFBD465DF8047B7047B8
:1017F000D43D002080B588B000AF0023FB610023FA
:10180000BB61714B1B68002B0AD14FF0500383F36F
:101810001188BFF36F8FBFF34F8F7B6000BFFEE770
:10182000FFF7DAFC684B1B68013B674A1360664BA5
:101830001B68002B40F0C080644B1B68002B00F03D
:10184000BB808AE0624BDB68DB68FB61FB699B6AFB
:101850003B61FB69DB69FA69126A9A60FB691B6A82
:10186000FA69D2695A603B695A68FB6918339A422F
:1018700003D1FB691A6A3B695A60FB6900229A62CC
:101880003B691B685A1E3B691A60FB695B69FB6018
:10189000FB699B68FA69D2689A60FB69DB68FA6940
:1018A00092685A60FB685A68FB6904339A4203D114
:1018B000FB69DA68FB685A60FB6900225A61FB68C1
:1018C0001B685A1EFB681A60FB69DB6A01229A409A
:1018D000404B1B6813433F4A1360FB69DA6A3E4979
:1018E00013469B0013449B000B4404331B68BB60EE
:1018F000FB69BA689A60BB689A68FB69DA60BB6882
:101900009B68FA6904325A60FB691A1DBB689A60C9
:10191000FB69DA6A13469B0013449B002E4A1A4463
:10192000FB695A61FB69DA6A2B4913469B00134431
:101930009B000B441B68591C274813469B0013440B
:101940009B0003441960FB69DA6A244B1B68DB6A5D
:101950009A4202D3224B01221A601D4B1B68002BB6
:101960007FF470AFFB69002B01D000F057FA1D4BDC
:101970001B687B617B69002B10D000F047F80346A1
:10198000002B02D0164B01221A607B69013B7B6160
:101990007B69002BF1D1134B00221A60104B1B689E
:1019A000002B09D00123BB610F4B4FF080521A600E
:1019B000BFF34F8FBFF36F8FFFF73EFCBB69184635
:1019C0002037BD4680BD00BFD43D0020AC3D002087
:1019D0006C3D0020B43D0020B03C0020AC3C002019
:1019E000C03D0020BC3D002004ED00E080B483B089
:1019F00000AF054B1B687B607B6818460C37BD4603
:101A00005DF8047B704700BFB03D002080B58AB010
:101A100000AF00237B627D4B1B68002B40F0EC8005
:101A20007B4B1B6801333B62794A3B6A13603B6A1C
:101A3000002B20D1774B1B681B68002B0AD04FF07E
:101A4000500383F31188BFF36F8FBFF34F8F7B6019
:101A500000BFFEE76F4B1B68FB616F4B1B686D4A55
:101A600013606D4AFB6913606C4B1B6801336B4A52
:101A7000136000F0D3F96A4B1B683A6A9A42C0F0CF
:101A8000A680644B1B681B68002B04D1644B4FF08D
:101A9000FF321A609BE05F4B1B68DB68DB68BB6151
:101AA000BB695B687B613A6A7B699A4203D25C4A94
:101AB0007B6913608BE0BB695B693B61BB699B68B9
:101AC000BA69D2689A60BB69DB68BA6992685A6081
:101AD0003B695A68BB6904339A4203D1BB69DA682F
:101AE0003B695A60BB6900225A613B691B685A1EF8
:101AF0003B691A60BB699B6A002B1ED0BB699B6A5D
:101B0000FB60BB69DB69BA69126A9A60BB691B6AD0
:101B1000BA69D2695A60FB685A68BB6918339A423D
:101B200003D1BB691A6AFB685A60BB6900229A62DA
:101B3000FB681B685A1EFB681A60BB69DB6A0122DE
:101B40009A40384B1B681343364A1360BB69DA6A04
:101B5000354913469B0013449B000B4404331B6818
:101B6000BB60BB69BA689A60BB689A68BB69DA6097
:101B7000BB689B68BA6904325A60BB691A1DBB68AE
:101B80009A60BB69DA6A13469B0013449B00264A9D
:101B90001A44BB695A61BB69DA6A234913469B0040
:101BA00013449B000B441B68591C1F4813469B00A1
:101BB00013449B0003441960BB69DA6A1B4B1B6822
:101BC000DB6A9A427FF65DAF01237B6259E7174BD0
:101BD0001B68DA6A144913469B0013449B000B44AC
:101BE0001B68012B01D901237B62114B1B68002B61
:101BF00007D001237B6204E00E4B1B6801330D4AC2
:101C000013607B6A18462837BD4680BDD43D00204E
:101C1000B03D0020643D0020683D0020C43D002010
:101C2000CC3D0020B43D0020B03C0020AC3C002066
:101C3000C03D0020BC3D002080B487B000AF274BE2
:101C40001B68002B03D0264B01221A603FE0244B77
:101C500000221A60234B1B68FB60FB68B3FA83F316
:101C6000FB72FB7AC3F11F037B611F497A6913463C
:101C70009B0013449B000B441B68002B0AD14FF0C0
:101C8000500383F31188BFF36F8FBFF34F8F7B60D7
:101C900000BFFEE77A6913469B0013449B00124A7B
:101CA00013443B613B695B685A683B695A603B6916
:101CB0005A683B6908339A4204D13B695B685A68A9
:101CC0003B695A603B695B68DB68084A136000BF88
:101CD0001C37BD465DF8047B704700BFD43D002033
:101CE000C03D0020B43D0020B03C0020AC3C0020B2
:101CF00080B582B000AF786000F052F8064B1B68E8
:101D0000012BF9D9054B4FF080521A60BFF34F8F6A
:101D1000BFF36F8FF0E700BFB03C002004ED00E0A0
:101D200080B582B000AF00237B600CE07A68134678
:101D30009B0013449B00124A13441846FFF78EF889
:101D40007B6801337B607B68062BEFD90D48FFF77A
:101D500085F80D48FFF782F80C48FFF77FF80C482C
:101D6000FFF77CF80B48FFF779F80B4B054A1A6030
:101D70000A4B054A1A6000BF0837BD4680BD00BF48
:101D8000B03C00203C3D0020503D00206C3D002038
:101D9000803D0020983D0020643D0020683D0020EB
:101DA00080B582B000AF19E0FFF716FA104BDB6880
:101DB000DB687B607B6804331846FFF7B5F80D4B92
:101DC0001B68013B0B4A13600B4B1B68013B0A4A23
:101DD0001360FFF731FA786800F010F8064B1B68C3
:101DE000002BE1D100BF00BF0837BD4680BD00BF5A
:101DF000803D0020AC3D0020943D002080B582B0A5
:101E000000AF78607B681B6B1846FFF70FF87868A7
:101E1000FFF70CF800BF0837BD4680BD80B400AFA7
:101E20000A4B1B681B68002B04D1094B4FF0FF3293
:101E30001A6005E0054B1B68DB681B68044A1360E9
:101E400000BFBD465DF8047B704700BF643D0020C5
:101E5000CC3D002080B586B000AF78603960364B4D
:101E60001B687B61354B1B6804331846FFF75CF831
:101E70000346002B0BD1314B1B68DB6A012202FAAF
:101E800003F3DA432E4B1B6813402D4A13607B6823
:101E9000B3F1FF3F24D13B68002B21D0294B5B6875
:101EA0003B61264B1B683A699A60244B1B683A6970
:101EB0009268DA60214B1A683B699B6804325A6069
:101EC0001E4B1B681A1D3B699A601C4B1B681D4A00
:101ED0005A611C4B1B6801331A4A136000BF26E08D
:101EE0007A697B681344FB60144B1B68FA685A607C
:101EF000FA687B699A4209D2134B1A680F4B1B6828
:101F0000043319461046FEF7D6FF10E00F4B1A684F
:101F10000A4B1B68043319461046FEF7CCFF0C4BE6
:101F20001B68FA689A4202D2094AFB68136000BF34
:101F30001837BD4680BD00BFB03D0020AC3C00203E
:101F4000B43D0020983D0020683D0020643D002005
:101F5000CC3D00200D488546AFF300800C480D496C
:101F60000D4A002302E0D458C4500433C4188C42F4
:101F7000F9D30A4A0A4C002301E013600432A2425A
:101F8000FBD300F019F8FEF759F9FEE70000012035
:101F90000000002014000020502000081400002041
:101FA000D83D0020FEE702440346934200D170472B
:101FB00003F8011BF9E7000070B50D4D0D4C641BD3
:101FC000A4100026A64209D10B4D0C4C00F018F8C5
:101FD000641BA4100026A64205D170BD55F8043B31
:101FE00098470136EEE755F8043B98470136F2E78B
:101FF0004820000848200008482000084C2000081D
:10200000F8B500BFF8BC08BC9E467047F8B500BFE5
:08201000F8BC08BC9E467047B5
:10201800506572696F6469635461736B00000000F6
:1020280049444C4500000000000802400D00000033
:102038000100000000040240000000000000000051
:04204800C5010008C6
:04204C00A1010008E6
:10205000001001400044004000140140AAAAAAAAAE
:042060000600000076
:0400000508001F557B
:00000001FF
